:060000000A128A1110280B
:10000800FE00030E83160313AD000A08AE007F0836
:10001800AF000A128A15AA2D0A128A111328831210
:100028000313EF0183160313B001B10183010A1210
:100038008A11E42F831203133D088039C200420855
:10004800C7003D08C2004207C3004308CD00BC1FDB
:100058002E282F2830284D144D0803193428352808
:1000680044284D0A031D39283A2842280030BD008B
:100078000030BC000030BB000030BA00BC174C2870
:100088000030BD000030BC000030BB000030BA00BA
:1000980041088039C2004208C7064108C200420729
:1000A800C3004308CC00C01F5A285B285C284C14A6
:1000B8004C0803196028612870284C0A031D65281C
:1000C80066286E280030C1000030C0000030BF0034
:1000D8000030BE00C01778280030C1000030C000D2
:1000E8000030BF000030BE004C0803197C287D2872
:1000F80082284D08031D812882288B280030BD00E6
:100108000030BC000030BB000030BA007E2B3A083B
:10011800C2004208F00040080A128A153B250A125C
:100128008A11710883120313D3007008D200520891
:10013800C200C301C401C5014508CB004408CA0078
:100148004308C9004208C8005308C200C301C401DB
:10015800C5014508D1004408D0004308CF00420833
:10016800CE003B08C2004208F0003F080A128A1578
:100178003B250A128A11710883120313D3007008F1
:10018800D2005208C200C301C401C5014208C80711
:10019800430803110318013E0319D328C90744086B
:1001A80003110318013E0319DA28CA074508031189
:1001B8000318013E0319E128CB075308C200C30105
:1001C800C401C5014208CE07430803110318013EC4
:1001D8000319EF28CF07440803110318013E031938
:1001E800F628D007450803110318013E0319FD2816
:1001F800D1073C08C2004208F0003E080A128A15DE
:100208003B250A128A11710883120313D300700860
:10021800D2005208C200C301C401C5014208C80780
:10022800430803110318013E03191B29C907440891
:1002380003110318013E03192229CA0745080311AF
:100248000318013E03192929CB075308C200C3012B
:10025800C401C5014208CE07430803110318013E33
:1002680003193729CF07440803110318013E03195E
:100278003E29D007450803110318013E03194529F3
:10028800D1070830C2000310C80DC90DCA0DCB0D27
:10029800C20B47293B08C2004208F0003E080A1278
:1002A8008A153B250A128A11710883120313D30099
:1002B8007008D2005208C2005308C300C401C50127
:1002C8004208C807430803110318013E03196D29A2
:1002D800C907440803110318013E03197429CA0702
:1002E800450803110318013E03197B29CB073A0877
:1002F800C2004208F0003F080A128A153B250A127C
:100308008A11710883120313D3007008D2005208AF
:10031800C2005308C300C401C5014208C807430806
:1003280003110318013E03199A29C9074408031148
:100338000318013E0319A129CA0745080311031828
:10034800013E0319A829CB070830C2000310C80DC5
:10035800C90DCA0DCB0DC20BAA293A08C200420822
:10036800F0003E080A128A153B250A128A11710804
:1003780083120313D3007008D2005208C200530836
:10038800C300C401C5014208C80743080311031884
:10039800013E0319D029C907440803110318013E77
:1003A8000319D729CA07450803110318013E031981
:1003B800DE29CB073B08C2004208F00040080A12B9
:1003C8008A153B250A128A11710883120313D30078
:1003D8007008D2005208C2005308C300C401C50106
:1003E8004208CE07430803110318013E0319FD29EB
:1003F800CF07440803110318013E0319042AD00744
:10040800450803110318013E03190B2AD1073C08BC
:10041800C2004208F0003F080A128A153B250A125A
:100428008A11710883120313D3007008D20052088E
:10043800C2005308C300C401C5014208CE074308DF
:1004480003110318013E03192A2ACF074408031190
:100458000318013E0319312AD00745080311031870
:10046800013E0319382AD1073C08C2004208F000AF
:1004780040080A128A153B250A128A11710883124C
:100488000313D3007008D2005208C2005308C300F7
:10049800C401C50108300310C20DC30DC40DC50D3C
:1004A800FF3E031D4F2A4208CE07430803110318D5
:1004B800013E0319602ACF07440803110318013EBF
:1004C8000319672AD007450803110318013E0319C9
:1004D8006E2AD1074808C2004908C3004A08C40068
:1004E8004B08C50018300310C50CC40CC30CC20C53
:1004F800FF3E031D772A4208CE074308031103185D
:10050800013E0319882ACF07440803110318013E46
:1005180003198F2AD007450803110318013E031950
:10052800962AD1070830C2000310C80DC90DCA0D9C
:10053800CB0DC20B982A4D084C07C200C301C30D4E
:100548004208823ED20043080318013EFF3ED30012
:10055800CA2A0130C2000310CE0DCF0DD00DD10D27
:10056800C20BAF2ACB1FB92ABA2ABB2A4E140130B4
:10057800C2000310C80DC90DCA0DCB0DC20BBD2A90
:10058800FF30D2070318D30AFF30D307D01FCD2A74
:10059800CE2AAD2ACC01CB1FD22AD32AEF2AFF308C
:1005A8004805C200FF304905C300FF304A05C400B2
:1005B8007F304B05C5004508440443044204031931
:1005C800E62AE72AEA2ACC01CC0AEF2A4E1CED2AB1
:1005D800EE2AEF2AE72A4C080319F32AF42A252BD6
:1005E8000130CE07003003180130CF070030031860
:1005F8000130D007003003180130D107511C052BFA
:10060800062B252B4E08C2004F08C3005008C40013
:100618005108C5000130C600450DC50CC40CC30CFB
:10062800C20CC60B102B4508D1004408D000430863
:10063800CF004208CE000130D2070318D30A003099
:10064800D3075308803AFF0080307F02031D2E2B0A
:10065800FF305202031C312B322B3D2B7F3083128B
:100668000313D1008030D0000030CF000030CE001E
:10067800722B831203135308803AFF0080307F02E5
:10068800031D482B0130520203184B2B4C2B582BBF
:10069800003083120313D1000030D0000030CF00A7
:1006A8000030CE00C701722B831203135208C20018
:1006B8004208CD00FF30CE05FF30CF057F30D00592
:1006C8000030D1054D1C692B6A2B6B2BD0174D08B8
:1006D800C2000310420CC3004308D1004708C200FF
:1006E8004208D1045108BD005008BC004F08BB00A7
:1006F8004E08BA0008008312031357088039DC003B
:100708005C08E4005708DC005C07DD005D08E600D3
:10071800D61F8F2B902B912B661466080319952BE7
:10072800962BA62B660A031D9A2B9B2BA32B003016
:10073800D7000030D6000030D5000030D400D617DE
:10074800D701AE2B0030D7000030D6000030D500DE
:100758000030D4005B088039DC005C08E5006508DF
:1007680064060319B82BB92BBA2B64175B08DC0095
:100778005C07DD005D08E500DA1FC32BC42BC52B21
:10078800651465080319C92BCA2BDA2B650A031DE2
:10079800CE2BCF2BD72B0030DB000030DA00003017
:1007A800D9000030D800DA17DB01E22B0030DB007B
:1007B8000030DA000030D9000030D8006608650241
:1007C8000318E72BE82B2C2C641FEB2BEC2BF02BBE
:1007D8008030DC005C08E4066608DC005C08E700A2
:1007E8006508DC005C08E6006708DC005C08E500DA
:1007F8005408DC005C08E7005808DC005C08D400FA
:100808006708DC005C08D8005508DC005C08E700D5
:100818005908DC005C08D5006708DC005C08D900D2
:100828005608DC005C08E7005A08DC005C08D600C3
:100838006708DC005C08DA005708DC005C08E700A1
:100848005B08DC005C08D7006708DC005C08DB009C
:10085800E7016508DC00DD015D08DF0066085C0271
:10086800DE00031CDF035F08803AFF0080307F0250
:10087800031D402C1A305E02031C432C442C812C8F
:10088800831203135708560455045404031D4D2CB2
:100898004F2C0130502C0030DC005C08E7000030A1
:1008A800D7000030D6000030D5000030D4006508ED
:1008B800DC005C08E600892C671C632C642C6D2C1A
:1008C8006708DC0003105C0C0138DD005D08E700F8
:1008D8006F2C0310E70C541C722C732C742CE71724
:1008E8000130DC00570DD70CD60CD50CD40CDC0B22
:1008F800762C0130DC005C08E607831203136508D8
:100908006602031C882C892C602C641B8C2C8D2C73
:10091800D82C6608031D912C922C9B2C0030D700F4
:100928000030D6000030D5000030D400062E58081C
:10093800D407590803110318013E0319A42CD5073D
:100948005A0803110318013E0319AB2CD6075B089C
:1009580003110318013E0319B22CD707571CB52CF5
:10096800B62C8C2D671CB92CBA2CC32C6708DC005C
:1009780003105C0C0138DD005D08E700C52C03108E
:10098800E70C541CC82CC92CCA2CE7170130DC0012
:10099800570DD70CD60CD50CD40CDC0BCC2C013055
:1009A800DC005C08E6078C2D5708803AFF005B08DE
:1009B800803A7F02031DEA2C5A085602031DEA2CCE
:1009C80059085502031DEA2C580854020318ED2C47
:1009D800EE2C462DFF30DC00FF30DD00FF30DE005E
:1009E800FF30DF005808E0005908E1005A08E2002B
:1009F8005B08E3005408E0025508031C550F052D59
:100A0800062DE1025608031C560F0B2D0C2DE20291
:100A18005708031C570F112D122DE3026008DC073D
:100A280061080318610F192D1A2DDD0762080318D4
:100A3800620F1F2D202DDE0763080318630ADF07E6
:100A48005F08D7005E08D6005D08D5005C08D400B2
:100A58008030DC005C08E406E709E70A6708031D44
:100A6800362D372D542D0130D407003003180130AE
:100A7800D507003003180130D607003003180130BD
:100A8800D707542D5808D4025908031C590FD5020A
:100A98005A08031C5A0FD6025B08031C5B0FD702C7
:100AA8005708560455045404031D5B2D5C2D882DEE
:100AB8006708031D602D612D882D0030D700003098
:100AC800D6000030D5000030D400062E0130DC00FE
:100AD8000310D40DD50DD60DD70DDC0B6C2DE71FEB
:100AE800762D772D782D5414671C7B2D7C2D7F2D2A
:100AF8000314E70D812D0310E70D66080319852DF2
:100B0800862D882D0130E602D61F8B2D8C2D6A2D5F
:100B1800E501E71F902D912D9F2D67087F39031957
:100B2800962D972D9A2DE501E50A9F2D541C9D2D94
:100B38009E2D9F2D972D65080319A32DA42DD82D23
:100B48000130D407003003180130D50700300318EE
:100B58000130D607003003180130D707571CB52DD0
:100B6800B62DD82D5408DC005508DD005608DE00E7
:100B78005708DF000130E0005F0DDF0CDE0CDD0CF4
:100B8800DC0CE00BC02D5F08D7005E08D6005D08BE
:100B9800D5005C08D400660A0319D32DD42DD82DAE
:100BA8000130DC005C08E607660A0319DC2DDD2D40
:100BB800E22D6608031DE12DE22DF02D0030D7004F
:100BC8000030D6000030D5000030D4006608031D80
:100BD800EE2DEF2DF02DE401661CF32DF42DF62DEE
:100BE800D617FA2D7F30DC005C08D6056608DC00D5
:100BF80003105C0CDD005D08D700E41F042E052EF1
:100C0800062ED71708008312031327088039A80077
:100C18002808B1002708A8002807A9002908B80053
:100C2800A61F172E182E192E3814380803191D2E32
:100C38001E2E2E2E380A031D222E232E2B2E003078
:100C4800A7000030A6000030A5000030A400A617B9
:100C5800A701362E0030A7000030A6000030A500FE
:100C68000030A40023088039A8002808B10623080A
:100C7800A8002807A9002908B900A21F442E452E5C
:100C8800462E3914390803194A2E4B2E5B2E390A81
:100C9800031D4F2E502E582E0030A3000030A20006
:100CA8000030A1000030A000A217A301632E00307D
:100CB800A3000030A2000030A1000030A0002308EB
:100CC800220421042004031D6A2E6B2E842E00307A
:100CD800A7000030A6000030A5000030A400803036
:100CE800A6047F30A7043108A8002808A70427080D
:100CF800A3002608A2002508A1002408A000E32FCD
:100D08003808031D882E892E922E0030A30000304B
:100D1800A2000030A1000030A000E32F3808A8008E
:100D2800A9012908AB0039082802AA00031CAB0353
:100D38002A087F3EB2002B080318013E003EB3008C
:100D48002708B0002608AF002508AE002408AD002B
:100D58000030A7000030A6000030A5000030A40035
:100D68000030B7000030B6000030B5000030B400E5
:100D7800B901082F39080319C22EC32EE32E0130FA
:100D8800A8000310AD0DAE0DAF0DB00DA80BC52E0C
:100D98000130A8000310A40DA50DA60DA70DA80BE2
:100DA800CE2EB71FD82ED92EDA2E24140130A80043
:100DB8000310B40DB50DB60DB70DA80BDC2E230826
:100DC8003002031DF12E22082F02031DF12E2108E7
:100DD8002E02031DF12E20082D02031CF42EF52EE1
:100DE800042F37172008AD022108031C210FAE027B
:100DF8002208031C220FAF022308031C230FB00292
:100E08000130A8002808B9071A303902031C0D2F31
:100E18000E2FBE2E30082F042E042D040319152F73
:100E2800162F352F3414352F0130A8000310A40DC8
:100E3800A50DA60DA70DA80B1A2FB71F242F252F18
:100E4800262F24140130A8000310B40DB50DB60DDB
:100E5800B70DA80B282FFF30B2070318B30AFF30CD
:100E6800B307A61F382F392F182FB901B71F3D2FE9
:100E78003E2F5A2FFF303405A800FF303505A90052
:100E8800FF303605AA007F303705AB002B082A044F
:100E9800290428040319512F522F552FB901B90AD3
:100EA8005A2F241C582F592F5A2F522F39080319FB
:100EB8005E2F5F2F902F0130A407003003180130F8
:100EC800A507003003180130A607003003180130C9
:100ED800A707271C702F712F902F2408A80025081A
:100EE800A9002608AA002708AB000130AC002B0D8A
:100EF800AB0CAA0CA90CA80CAC0B7B2F2B08A700D9
:100F08002A08A6002908A5002808A4000130B2076D
:100F18000318B30A0030B3073308803AFF00803063
:100F28007F02031D992FFF303202031C9C2F9D2F37
:100F3800AB2FFF3083120313B2000030B300003030
:100F4800A7000030A6000030A5000030A4008312DE
:100F580003133308803AFF0080307F02031DB62F49
:100F6800013032020318B92FBA2FC72F8312031387
:100F7800B201B3010030A7000030A6000030A50080
:100F88000030A400B101831203133208A800280816
:100F9800B800381CD02FD12FD32FA617D72F7F30CA
:100FA800A8002808A6053808A8000310280CA900DE
:100FB8002908A7003108A8002808A7047B2E0800E4
:100FC8000A128A1562250A128A11E92F0A128A1151
:020FD8001028DF
:101A7600F800F401F5017008F200F3017208F600AF
:101A86007308F700781C482D492D4F2D7608F4076A
:101A96000318F50A7708F50701300310F60DF70D60
:101AA600FF3E031D502D0310F80C7808031D5C2D16
:101AB6005D2D452D7508F1007408F00008008316A9
:101AC60003178801890120308316031385008312CA
:101AD60003138501831603130F088F3940388F00CF
:101AE6000F14183087008312031387011408F03986
:101AF60004389400141294168316031314179413BF
:101B06000715FF3092008312031397013F309705A4
:101B16001708F0390C3897003D3095001708CF3973
:101B260010389700033092048C1012158C1C9C2DD3
:101B36009D2D992D8C108316031307118312031301
:101B46008C11831603138C158B170B170800831241
:101B560003138C1DAF2DB02DED2D83160313A50198
:101B6600FF30AB002B08A6003E30A7000030A800CF
:101B76007D30A9000030AA008312031313080A124D
:101B86008A1594260A128A15831603132608B100AD
:101B96002508B0003108AC003008AB000310AC0CCF
:101BA600AB0C0310AC0CAB0C2B0883120313950083
:101BB6008316031330080339AB00AB0E83120313ED
:101BC6001708831603132B06CF392B06831203132C
:101BD60097008C11831603132F08FF002E088A0026
:101BE6002D0E8300FE0E7E0E0900031083120313D2
:101BF6006A0D6B0D83160313A000200883120313CE
:101C0600ED006D08031D082E092E122E0030EB0084
:101C16000030EA000030E9000030E800932E680842
:101C260083160313A0008312031369088316031394
:101C3600A100831203136A0883160313A2008312FA
:101C460003136B0883160313A3001F300310A30CA2
:101C5600A20CA10CA00CFF3E031D292E2008A400F7
:101C6600240883120313EC00EA17FF30E805FF305F
:101C7600E905FF30EA050030EB059630ED02ED1F71
:101C8600452E462E642E6D08803A973E03184C2E3C
:101C96004D2E4E2E092E01300310EB0CEA0CE90CEA
:101CA600E80CFF3E031D4F2E013083160313A000E0
:101CB600200883120313ED07031D622E632E4E2E9A
:101CC600832E20306D02031C692E6A2E7E2E092E6D
:101CD600013083160313A000031083120313E80DCB
:101CE600E90DEA0DEB0D83160313A00B6F2E0130E1
:101CF60083120313ED026D08031D822E832E6B2EB5
:101D06006C080319872E882E932EE809E909EA093B
:101D1600EB09E80A0319E90A0319EA0A0319EB0AA7
:101D2600080083120313EE00831603132708F0003E
:101D36002808F100F201F30100300A128A1546273D
:101D46000A128A15730883120313DB007208DA007D
:101D56007108D9007008D8008316031327082902D2
:101D6600F0002808031C280A2A02F100F201F301F8
:101D760000300A128A1546270A128A15730883123A
:101D86000313A7007208A6007108A5007008A40036
:101D96008316031325082602F000F101031CF10344
:101DA600F201F11BF2037208F30001300A128A15E0
:101DB60046270A128A15730883120313A3007208B2
:101DC600A2007108A1007008A0000A128A11072655
:101DD6000A128A15831203132308C1002208C000C1
:101DE6002108BF002008BE008316031325088312AE
:101DF60003136E02F000F101031CF103F201F11B63
:101E0600F2037208F30001300A128A1546270A12F5
:101E16008A15730883120313BD007208BC0071088B
:101E2600BB007008BA000A128A111E200A128A150F
:101E3600831203133D08D7003C08D6003B08D500A3
:101E46003A08D4000A128A117F230A128A158312CD
:101E560003135708EB005608EA005508E900540832
:101E6600E8000A128A15F8250A128A158312031346
:101E7600690883160313A6008312031368088316E2
:101E86000313A5000800F800780803194B2F4C2F00
:101E9600602FF31F4F2F502F602F7009FA00710922
:101EA600FB007209FC007309FD00FA0A0319FB0A1C
:101EB6000319FC0A0319FD0A682F7308FD0072084E
:101EC600FC007108FB007008FA00730872047104C4
:101ED6007004031D6F2F702F792F0030F300003030
:101EE600F2000030F1000030F000FF2F9630F400D1
:101EF6007408F9008B2F0130F4007408F9070130DB
:101F06000310FD0CFC0CFB0CFA0CFF3E031D832F8B
:101F1600FE307D05031D902F912F7E2FAD2F0130B2
:101F2600F4007408F9070130FA070030031801308D
:101F3600FB07003003180130FC070030031801309E
:101F4600FD0701300310FD0CFC0CFB0CFA0CFF3EE8
:101F5600031DA52FFF307D05031DB22FB32F922F32
:101F6600BF2F0130F9020130F4000310FA0DFB0D0A
:101F7600FC0DFD0DF40BB82FFC1BC22FC32FC92F70
:101F8600023079020318C82FC92FB42F7918CC2F25
:101F9600CD2FD52FFF30FA05FF30FB057F30FC052E
:101FA600FF30FD050310F90C7908F400F501F60180
:101FB600F70118300310F40DF50DF60DF70DFF3E81
:101FC600031DDD2F7408FA047508FB047608FC046B
:101FD6007708FD0478080319F12FF22FF72FF31F66
:101FE600F52FF62FF72FFD177D08F3007C08F2007A
:0A1FF6007B08F1007A08F0000800F3
:08400000FF3FFF3FFF3FFF3FC0
:04400E00D420FF3F7C
:00000001FF
